{
  "contractName": "Courses",
  "abi": [
    {
      "inputs": [
        {
          "internalType": "uint256",
          "name": "course_id",
          "type": "uint256"
        },
        {
          "internalType": "uint256",
          "name": "cost",
          "type": "uint256"
        }
      ],
      "name": "add_course",
      "outputs": [],
      "stateMutability": "nonpayable",
      "type": "function"
    },
    {
      "inputs": [
        {
          "internalType": "uint256",
          "name": "course_id",
          "type": "uint256"
        }
      ],
      "name": "learn_course",
      "outputs": [],
      "stateMutability": "payable",
      "type": "function",
      "payable": true
    }
  ],
  "bytecode": "0x608060405234801561001057600080fd5b506103a4806100206000396000f3fe6080604052600436106100295760003560e01c80631984771e1461002e5780637cab38e71461004a575b600080fd5b61004860048036038101906100439190610284565b610073565b005b34801561005657600080fd5b50610071600480360381019061006c91906102b1565b6101c2565b005b60008082815260200190815260200160002060010154348181101561009757600080fd5b60008084815260200190815260200160002060000160009054906101000a900473ffffffffffffffffffffffffffffffffffffffff16338073ffffffffffffffffffffffffffffffffffffffff168273ffffffffffffffffffffffffffffffffffffffff160361010657600080fd5b600080600087815260200190815260200160002060000160009054906101000a900473ffffffffffffffffffffffffffffffffffffffff16905060008173ffffffffffffffffffffffffffffffffffffffff166108fc349081150290604051600060405180830381858888f193505050509050806101b9576040517f08c379a00000000000000000000000000000000000000000000000000000000081526004016101b09061034e565b60405180910390fd5b50505050505050565b80600081116101d057600080fd5b60003390508060008086815260200190815260200160002060000160006101000a81548173ffffffffffffffffffffffffffffffffffffffff021916908373ffffffffffffffffffffffffffffffffffffffff160217905550826000808681526020019081526020016000206001018190555050505050565b600080fd5b6000819050919050565b6102618161024e565b811461026c57600080fd5b50565b60008135905061027e81610258565b92915050565b60006020828403121561029a57610299610249565b5b60006102a88482850161026f565b91505092915050565b600080604083850312156102c8576102c7610249565b5b60006102d68582860161026f565b92505060206102e78582860161026f565b9150509250929050565b600082825260208201905092915050565b7f4661696c656420746f2073656e64204574686572000000000000000000000000600082015250565b60006103386014836102f1565b915061034382610302565b602082019050919050565b600060208201905081810360008301526103678161032b565b905091905056fea2646970667358221220416ea5c36f8b05f58e3aeae8fb45415b6f77eb98624b4d257c1adb8675f1352664736f6c634300080d0033",
  "immutableReferences": {},
  "source": "// SPDX-License-Identifier: MIT\npragma solidity ^0.8.10;\n// import \"hardhat/console.sol\";\n\ncontract Courses{\n    struct course_info{\n        address instructor_id;\n        uint credits_required;\n        address[] teaching_to;\n        address[] taught_to;\n    }\n\n    struct student_info{\n        uint[] enrolled_in;\n        uint[] learned;\n    }\n\n    mapping(uint => course_info) course;\n    // mapping(address => student_info) student;\n    modifier min_creation_cost(uint course_cost){\n        require(course_cost > 0);\n        _;\n    }\n    \n    modifier valid_cost(uint minCost, uint currCost){\n        require(currCost >= minCost);\n        _;\n    }\n\n    modifier teacher_learner_validate(address teacher, address learner){\n        require(teacher != learner);\n        _;\n    }\n\n\n    function add_course(uint course_id, uint cost) public min_creation_cost(cost){ // teacher, invoker\n        address inst_id = msg.sender;\n        // check if course id ! exist.\n        // cost > 0\n\n        course[course_id].instructor_id = inst_id;\n        course[course_id].credits_required = cost;\n        // console.log(\"adding course\", course_id, \"with cost\", cost);\n        // console.log(\"id\", course[course_id].instructor_id);\n    }\n\n    function learn_course(uint course_id) public payable valid_cost(course[course_id].credits_required, msg.value) teacher_learner_validate(course[course_id].instructor_id, msg.sender){\n        // if (course[course_id].credits_required > msg.value) revert();\n        // check if course_id in course\n        // lerner is not teacher\n        // check learner balance > course_cost\n\n        address payable instructor_addr = payable(course[course_id].instructor_id);\n        // console.log(\"id\", course[course_id].instructor_id, instructor_addr);\n\n        bool sent = instructor_addr.send(msg.value);\n        require(sent, \"Failed to send Ether\");\n    }\n}",
  "sourcePath": "/Users/ishantrana/Documents/blockchain/coursify/contracts/contracts/Courses.sol",
  "compiler": {
    "name": "solc",
    "version": "0.8.13+commit.abaa5c0e.Emscripten.clang"
  },
  "schemaVersion": "3.4.7",
  "updatedAt": "2022-04-16T15:58:39.505Z",
  "networkType": "ethereum",
  "devdoc": {
    "kind": "dev",
    "methods": {},
    "version": 1
  },
  "userdoc": {
    "kind": "user",
    "methods": {},
    "version": 1
  }
}