{
  "contractName": "Courses",
  "abi": [
    {
      "inputs": [
        {
          "internalType": "uint256",
          "name": "course_id",
          "type": "uint256"
        },
        {
          "internalType": "uint256",
          "name": "cost",
          "type": "uint256"
        }
      ],
      "name": "add_course",
      "outputs": [],
      "stateMutability": "nonpayable",
      "type": "function"
    },
    {
      "inputs": [
        {
          "internalType": "uint256",
          "name": "course_id",
          "type": "uint256"
        }
      ],
      "name": "learn_course",
      "outputs": [],
      "stateMutability": "payable",
      "type": "function",
      "payable": true
    },
    {
      "inputs": [],
      "name": "get_learner_level",
      "outputs": [
        {
          "internalType": "string",
          "name": "badge",
          "type": "string"
        }
      ],
      "stateMutability": "view",
      "type": "function",
      "constant": true
    },
    {
      "inputs": [
        {
          "internalType": "uint256",
          "name": "course_id",
          "type": "uint256"
        }
      ],
      "name": "learners_for_course",
      "outputs": [
        {
          "internalType": "address[]",
          "name": "learners",
          "type": "address[]"
        }
      ],
      "stateMutability": "view",
      "type": "function",
      "constant": true
    },
    {
      "inputs": [],
      "name": "learned_courses",
      "outputs": [
        {
          "internalType": "uint256[]",
          "name": "courses",
          "type": "uint256[]"
        }
      ],
      "stateMutability": "view",
      "type": "function",
      "constant": true
    }
  ],
  "bytecode": "0x608060405234801561001057600080fd5b50610b49806100206000396000f3fe60806040526004361061004a5760003560e01c80631984771e1461004f5780637cab38e71461006b578063e4b6bd4714610094578063f6151cc5146100bf578063f65e0882146100ea575b600080fd5b61006960048036038101906100649190610708565b610127565b005b34801561007757600080fd5b50610092600480360381019061008d9190610735565b6103ae565b005b3480156100a057600080fd5b506100a9610435565b6040516100b6919061080e565b60405180910390f35b3480156100cb57600080fd5b506100d4610592565b6040516100e191906108ee565b60405180910390f35b3480156100f657600080fd5b50610111600480360381019061010c9190610708565b61062a565b60405161011e9190610a00565b60405180910390f35b60008082815260200190815260200160002060010154348181101561014b57600080fd5b60008084815260200190815260200160002060000160009054906101000a900473ffffffffffffffffffffffffffffffffffffffff16338073ffffffffffffffffffffffffffffffffffffffff168273ffffffffffffffffffffffffffffffffffffffff16036101ba57600080fd5b600080600087815260200190815260200160002060000160009054906101000a900473ffffffffffffffffffffffffffffffffffffffff16905060008173ffffffffffffffffffffffffffffffffffffffff166108fc349081150290604051600060405180830381858888f1935050505090508061026d576040517f08c379a000000000000000000000000000000000000000000000000000000000815260040161026490610a6e565b60405180910390fd5b600080888152602001908152602001600020600201339080600181540180825580915050600190039060005260206000200160009091909190916101000a81548173ffffffffffffffffffffffffffffffffffffffff021916908373ffffffffffffffffffffffffffffffffffffffff160217905550600160003373ffffffffffffffffffffffffffffffffffffffff1673ffffffffffffffffffffffffffffffffffffffff16815260200190815260200160002060000187908060018154018082558091505060019003906000526020600020016000909190919091505560018060003373ffffffffffffffffffffffffffffffffffffffff1673ffffffffffffffffffffffffffffffffffffffff168152602001908152602001600020600101600082825461039e9190610abd565b9250508190555050505050505050565b80600081116103bc57600080fd5b60003390508060008086815260200190815260200160002060000160006101000a81548173ffffffffffffffffffffffffffffffffffffffff021916908373ffffffffffffffffffffffffffffffffffffffff160217905550826000808681526020019081526020016000206001018190555050505050565b606060003390506000600160008373ffffffffffffffffffffffffffffffffffffffff1673ffffffffffffffffffffffffffffffffffffffff168152602001908152602001600020600101549050600181116104c8576040518060400160405280600681526020017f62726f6e7a650000000000000000000000000000000000000000000000000000815250925061058d565b6002810361050d576040518060400160405280600681526020017f73696c7665720000000000000000000000000000000000000000000000000000815250925061058c565b60038103610552576040518060400160405280600481526020017f676f6c6400000000000000000000000000000000000000000000000000000000815250925061058b565b6040518060400160405280600881526020017f706c6174696e756d00000000000000000000000000000000000000000000000081525092505b5b5b505090565b6060600160003373ffffffffffffffffffffffffffffffffffffffff1673ffffffffffffffffffffffffffffffffffffffff16815260200190815260200160002060000180548060200260200160405190810160405280929190818152602001828054801561062057602002820191906000526020600020905b81548152602001906001019080831161060c575b5050505050905090565b60606000808381526020019081526020016000206002018054806020026020016040519081016040528092919081815260200182805480156106c157602002820191906000526020600020905b8160009054906101000a900473ffffffffffffffffffffffffffffffffffffffff1673ffffffffffffffffffffffffffffffffffffffff1681526020019060010190808311610677575b50505050509050919050565b600080fd5b6000819050919050565b6106e5816106d2565b81146106f057600080fd5b50565b600081359050610702816106dc565b92915050565b60006020828403121561071e5761071d6106cd565b5b600061072c848285016106f3565b91505092915050565b6000806040838503121561074c5761074b6106cd565b5b600061075a858286016106f3565b925050602061076b858286016106f3565b9150509250929050565b600081519050919050565b600082825260208201905092915050565b60005b838110156107af578082015181840152602081019050610794565b838111156107be576000848401525b50505050565b6000601f19601f8301169050919050565b60006107e082610775565b6107ea8185610780565b93506107fa818560208601610791565b610803816107c4565b840191505092915050565b6000602082019050818103600083015261082881846107d5565b905092915050565b600081519050919050565b600082825260208201905092915050565b6000819050602082019050919050565b610865816106d2565b82525050565b6000610877838361085c565b60208301905092915050565b6000602082019050919050565b600061089b82610830565b6108a5818561083b565b93506108b08361084c565b8060005b838110156108e15781516108c8888261086b565b97506108d383610883565b9250506001810190506108b4565b5085935050505092915050565b600060208201905081810360008301526109088184610890565b905092915050565b600081519050919050565b600082825260208201905092915050565b6000819050602082019050919050565b600073ffffffffffffffffffffffffffffffffffffffff82169050919050565b60006109678261093c565b9050919050565b6109778161095c565b82525050565b6000610989838361096e565b60208301905092915050565b6000602082019050919050565b60006109ad82610910565b6109b7818561091b565b93506109c28361092c565b8060005b838110156109f35781516109da888261097d565b97506109e583610995565b9250506001810190506109c6565b5085935050505092915050565b60006020820190508181036000830152610a1a81846109a2565b905092915050565b7f4661696c656420746f2073656e64204574686572000000000000000000000000600082015250565b6000610a58601483610780565b9150610a6382610a22565b602082019050919050565b60006020820190508181036000830152610a8781610a4b565b9050919050565b7f4e487b7100000000000000000000000000000000000000000000000000000000600052601160045260246000fd5b6000610ac8826106d2565b9150610ad3836106d2565b9250827fffffffffffffffffffffffffffffffffffffffffffffffffffffffffffffffff03821115610b0857610b07610a8e565b5b82820190509291505056fea264697066735822122000a4ce37566b295387a79353c76338c075856521ac1fcd5d9941765a531a017f64736f6c634300080d0033",
  "immutableReferences": {},
  "source": "// SPDX-License-Identifier: MIT\npragma solidity ^0.8.10;\n// import \"hardhat/console.sol\";\n\n\ncontract Courses{\n    struct course_info{\n        address instructor_id;\n        uint credits_required;\n        address[] teaching_to;\n        address[] taught_to;\n    }\n\n    struct student_info{\n        uint[] learned;\n        uint learnedCourses; \n    }\n\n    mapping(uint => course_info) course;\n    mapping(address => student_info) student;\n    \n    modifier min_creation_cost(uint course_cost){\n        require(course_cost > 0);\n        _;\n    }\n    \n    modifier valid_cost(uint minCost, uint currCost){\n        require(currCost >= minCost);\n        _;\n    }\n\n    modifier teacher_learner_validate(address teacher, address learner){\n        require(teacher != learner);\n        _;\n    }\n\n    function add_course(uint course_id, uint cost) public min_creation_cost(cost){ // teacher, invoker\n        address inst_id = msg.sender;\n\n        course[course_id].instructor_id = inst_id;\n        course[course_id].credits_required = cost;\n    }\n\n    function learn_course(uint course_id) public payable valid_cost(course[course_id].credits_required, msg.value) teacher_learner_validate(course[course_id].instructor_id, msg.sender){\n        address payable instructor_addr = payable(course[course_id].instructor_id);\n        // console.log(\"id\", course[course_id].instructor_id, instructor_addr);\n\n        bool sent = instructor_addr.send(msg.value);\n        require(sent, \"Failed to send Ether\");\n\n        course[course_id].teaching_to.push(msg.sender);\n        student[msg.sender].learned.push(course_id);\n        student[msg.sender].learnedCourses += 1;\n    }\n\n    function get_learner_level() public view returns(string memory badge){\n        address studentAddr = msg.sender;\n        uint numCourses = student[studentAddr].learnedCourses;\n\n        if (numCourses <= 1){\n            badge = \"bronze\";\n        }\n        else if (numCourses == 2){\n            badge = \"silver\";\n        }\n        else if (numCourses == 3){\n            badge = \"gold\";\n        }\n        else{\n            badge = \"platinum\";\n        }\n    }\n\n    function learners_for_course(uint course_id) public view returns(address[] memory learners){\n        learners = course[course_id].teaching_to;\n    }\n\n    function learned_courses() public view returns(uint[] memory courses){\n        courses = student[msg.sender].learned;\n    }\n}",
  "sourcePath": "/Users/ishantrana/Documents/blockchain/coursify/coursify-contract/contracts/Courses.sol",
  "compiler": {
    "name": "solc",
    "version": "0.8.13+commit.abaa5c0e.Emscripten.clang"
  },
  "schemaVersion": "3.4.7",
  "updatedAt": "2022-04-18T00:42:52.521Z",
  "networkType": "ethereum",
  "devdoc": {
    "kind": "dev",
    "methods": {},
    "version": 1
  },
  "userdoc": {
    "kind": "user",
    "methods": {},
    "version": 1
  }
}